:100000000C9400010C9428010C9428010C94970581
:100010000C9497050C9497050C9428010C942801D6
:100020000C9428010C9428010C9428010C942801AC
:100030000C9428010C9428010C9428010C9428019C
:100040000C948E0C0C9428010C946E0F0C94A00F41
:100050000C9428010C9428010C9428010C9428017C
:100060000C9428010C9428010000000800020100F3
:100070000003040700000000000000000102040863
:100080001020408001020408102001020408102002
:10009000040404040404040402020202020203032E
:1000A00003030303000000002300260029000000D2
:1000B0000000250028002B0000000000240027007D
:1000C0002A004E414E494E495459494E46CDCCCC5A
:1000D0003D0AD7233C17B7D13877CC2B329595E61C
:1000E000241FB14F0A000020410000C84200401CFC
:1000F0004620BCBE4CCA1B0E5AAEC59D7400407A49
:1001000010F35A00A0724E18090010A5D4E80000A0
:10011000E87648170000E40B54020000CA9A3B003E
:100120000000E1F505000080969800000040420FB5
:10013000000000A08601000000102700000000E879
:1001400003000000006400000000000A000000003E
:10015000000100000000002C76D888DC674F0823DF
:10016000DFC1DFAE59E1B1B796E5E3E453C63AE645
:1001700051997696E8E6C28426EB898C9B62ED4025
:100180007C6FFCEFBC9C9F40F2BAA56FA5F4900574
:100190005A2AF75C936B6CF9676DC11BFCE0E40DA8
:1001A00047FEF520E6B500D0ED902E03009435779C
:1001B000050080841E080000204E0A000000C80CC4
:1001C000333333330F986E12831141EF8D2114892D
:1001D0003BE65516CFFEE6DB18D1844B381BF77C87
:1001E0001D901DA4BBE424203284725E228100C9CC
:1001F000F124ECA1E53D27008402F507D00F8A0821
:1002000011241FBECFEFD8E0DEBFCDBF11E0A0E0CC
:10021000B1E0E0E1FAE302C005900D92A03FB10722
:10022000D9F723E0A0EFB1E001C01D92A039B207D9
:10023000E1F711E0CEEFD1E004C02297FE010E9469
:100240000816C83FD107C9F70E9414100C94FB1C74
:100250000C9400008F929F92AF92BF92CF92DF9248
:10026000EF92FF920F931F93CF93DF9300D000D0B4
:10027000CDB7DEB726E040E855E260E070E08CEEF6
:1002800092E00E940C0F61E08DE00E94BA0D61E0E7
:100290008CE00E94BA0D61E08BE00E94BA0D60E034
:1002A0008EE00E94BA0D60E08AE00E94BA0D60E024
:1002B00080E10E94BA0D60E084E00E94BA0D60E027
:1002C00085E00E94BA0D60E086E00E94BA0D60E011
:1002D00087E00E94BA0D1C821B821A8219828BE071
:1002E00092E00E94AC028DEF91E09F938F9389E0A2
:1002F00092E09F938F9387E092E09F938F9385E0A6
:1003000092E09F938F9383E092E09F938F9384EF8B
:1003100091E09F938F938AEF882E81E0982E98EF3B
:10032000A92E91E0B92E2CEFC22E21E0D22ECE01C3
:1003300001967C018E010D5F1F4F22EF31E04DE1F0
:1003400052E061E272E087E792E00E94500A0FB645
:10035000F894DEBF0FBECDBF0F900F900F900F909F
:10036000DF91CF911F910F91FF90EF90DF90CF9091
:10037000BF90AF909F908F90089580E10E94740D80
:100380008F35914024F081E08093FC010895109214
:10039000FC0108952091FA013091FB01809109023E
:1003A00090910A022817390714F461E001C060E057
:1003B0008DE00C94F30DCF92DF92EF92FF92C090FC
:1003C000F401D090F501E090F601F090F701609112
:1003D000010270910202882777FD8095982F0E9474
:1003E0006C149B01AC01C701B6010E94351487FF54
:1003F00002C060E00FC02091FD013091FE014091EC
:10040000FF0150910002C701B6010E941C15181689
:1004100084F761E08BE0FF90EF90DF90CF900C9439
:10042000F30D4091210250912202609123027091BC
:10043000240280911D0290911E02A0911F02B09192
:100440002002481759076A077B0710F461E001C0D2
:1004500060E08CE00C94F30D8EE00E94740D90939C
:10046000FB018093FA0160E08BE092E00E945E0461
:100470000E9439147093F9016093F80140E060E044
:100480008BE092E00E94FE036093F4017093F5010B
:100490008093F6019093F7010E94CA010E94DB014C
:1004A0000E9411020C94BD011092F1011092F00112
:1004B0008091F0019091F101CC9764F40E942C029C
:1004C0008091F0019091F10101969093F101809358
:1004D000F001EECF87E792E00E94700B87E792E091
:1004E0000E947D098091210290912202A091230215
:1004F000B0912402892B8A2B8B2B29F460E070E0C9
:10050000CB010C942807089526E04BE06FE08BE0C8
:1005100092E00C948B02DC0115966C93159716965D
:100520004C93169770E0FB01E458FF4FE491179647
:10053000EC931797FB01E057FF4F649118966C936B
:10054000189740E85EE360E070E01D964D935D9380
:100550006D937C9350970895CF93DF93EC0162E005
:100560008D810E94BA0D40E358EF6FEF7FEF49870E
:100570005A876B877C87DF91CF910895AF92BF92A6
:10058000CF92DF92EF92FF920F931F93CF93DF935F
:10059000EC01AF80662311F0BA2C01C0B12CA88504
:1005A000B0E0AA0FBB1FAC55BF4F40E050E0BA010E
:1005B000FD0185919491FC0180818A218B1112C0EB
:1005C0008A019B010F5F1F4F2F4F3F4FCD84DE8469
:1005D000EF84F8884C155D056E057F0538F4B90188
:1005E000A801E6CF342F252FCB0104C030E020E056
:1005F00080E090E0632F722FDF91CF911F910F91D8
:10060000FF90EF90DF90CF90BF90AF900895CF9282
:10061000DF92EF92FF920F931F93CF93DF93CDB7AB
:10062000DEB7C054D1400FB6F894DEBF0FBECDBFC9
:100630008C01F62E0E94D80CF11016C0F801C1846E
:10064000D284E384F4849B01AC012C193D094E094A
:100650005F0969017A0130EDC31637E0D306E10482
:10066000F10410F48189BAC0F80161877287838729
:1006700094871482138212821182108261E0858134
:100680000E94F30D6AEF70E080E090E00E94070D99
:1006900061E0F80185810E94BA0D60E0F801858172
:1006A0000E94F30D64E170E080E090E00E94070D8D
:1006B000F89461E0F80185810E94F30D88E290E0F2
:1006C0000E942F0D62E0F80185810E94BA0D8AE038
:1006D00090E00E942F0D60E0C8010E94BE02672BCF
:1006E000682B692B41F061E0C8010E94BE02672BB4
:1006F000682B692B21F4F801118A78946EC06E0181
:10070000FFEBCF1AFEEFDF0A9E012F5F3F4F79010B
:1007100060E0C8010E94BE02F7016083718382839A
:10072000938361E0C8010E94BE02F7016483758370
:1007300086839783F8E0EF0EF11CEC14FD0441F77B
:1007400078949E012F5F3F4F790120E030E0F70160
:10075000408151816281738184819581A681B781B5
:100760004115510561057105B1F10097A105B1056C
:1007700091F1F901F595E795F595E795F595E795EB
:10078000E00FF11FD080DD0C481759076A077B077F
:1007900010F0D08203C08D2D816080832F5F3F4F8A
:1007A000F8E0EF0EF11C2832310589F6F8012481BA
:1007B00030E04081818190E0840F911D4281840F5F
:1007C000911D4381840F911D99272817390719F42A
:1007D00081E0818B03C0F801118A80E0C05CDE4FAC
:1007E0000FB6F894DEBF0FBECDBFDF91CF911F9142
:1007F0000F91FF90EF90DF90CF900895CF92DF920E
:10080000EF92FF920F931F93CF93DF93EC01162F7C
:10081000642F0E940703882309F443C08E818B3024
:1008200031F008F43EC08551823040F03AC06A8110
:1008300070E080E090E00E946A1424C00A81602F7A
:100840006F7770E080E090E00E946C1420E030E070
:1008500040E853E40E9420156B017C016B8170E03D
:1008600080E090E00E946C149B01AC01C701B601CE
:100870000E94D1132DEC3CEC4CEC5DE30E94201562
:1008800007FD9058112389F026E636E646EE5FE331
:100890000E94201520E030E040E052E40E94D11395
:1008A00004C060E070E080EC9FE7DF91CF911F9182
:1008B0000F91FF90EF90DF90CF900895CF92DF924D
:1008C000EF92FF92CF93DF93EC0160E00E94070369
:1008D000882379F18E818B3029F158F1855182304E
:1008E00040F5688170E080E090E00E946A1420E0AA
:1008F00030E040E853E40E9420156B017C016981DF
:1009000070E080E090E00E946C149B01AC01C70194
:10091000B6010E94D1132DEC3CEC4CEC5DE30E943F
:1009200020150BC0688170E080E090E00E946A149E
:1009300004C060E070E080EC9FE7DF91CF91FF9012
:10094000EF90DF90CF900895209167023091680278
:1009500028173907B9F4909125028091260298173B
:1009600089F0E0912502F0E0E95DFD4F8081209162
:10097000250230E02F5F3F4F2F733327209325024E
:1009800090E008958FEF9FEF08951F93CF93DF932B
:10099000DC015C968D919C915D97009749F481E014
:1009A00090E013969C938E93129780E090E03BC06A
:1009B0005196ED91FC91529750962C915097322F71
:1009C00030951FB75E964C915E9741FB772770F983
:1009D00041FD6095F8944081772311F0422B01C0CE
:1009E00043234083EC012197F1F748E0508160FFF9
:1009F00002C0522B01C053235083EC012197F1F721
:100A00006695415099F78081772311F0832301C0C7
:100A1000822B80831FBF5C968D919C915D9701977F
:100A2000F1F781E090E0DF91CF911F91089520913F
:100A30006702309168022817390781F490912502E6
:100A400080912602981751F0E0912502F0E0E95DCF
:100A5000FD4F8081992787FD909508958FEF9FEF37
:100A6000089520916702309168022817390771F4C0
:100A7000809126022091250290E0805C9F4F821B8E
:100A8000910960E470E00E948315089580E090E091
:100A9000089520916702309168022817390739F4C8
:100AA0008FB7F89410922602109225028FBF0895F6
:100AB000E0916702F0916802E817F90769F4A389E9
:100AC000B4899C918589809589238C9310926802C2
:100AD0001092670281E0089580E00895CF93DF933C
:100AE000EC018A8D9B8D892BF1F0809167029091AA
:100AF00068028C179D07B9F0009711F00E94580505
:100B00008E8D8E7F8E8F1092260210922502D093AA
:100B10006802C0936702EB89FC8980819D89892BDB
:100B2000808381E001C080E0DF91CF9108951F9222
:100B30000F920FB60F9211242F933F934F935F9311
:100B40006F937F938F939F93AF93BF93EF93FF9395
:100B5000E0916702F0916802309709F451C0868DE8
:100B6000A685B785958581FF04C08C91892329F4DA
:100B700047C08C91892309F043C0A389B4899C9113
:100B80008589809589238C93868997890197F1F7C8
:100B9000208D318DA685B785758558E040E0C90167
:100BA0000197F1F7842F90E095958795482F6C91E8
:100BB000672309F04068515091F7868D81FD40957B
:100BC0008091260290E001968F739927209125024B
:100BD000281749F0A0912602B0E0A95DBD4F4C93C3
:100BE0008093260203C0868D8160868F828D938DCF
:100BF0000197F1F7A389B4898C919589892B8C93FE
:100C0000FF91EF91BF91AF919F918F917F916F91E4
:100C10005F914F913F912F910F900FBE0F901F90BA
:100C200018952FE031E0FC01318320830C945805A6
:100C30001F93CF93DF93EC01162F6E8D6695617035
:100C400081E06827812F0E94F30D61E0812F0E94CF
:100C5000BA0D812F90E0FC01E458FF4FE491E88B3E
:100C6000FC01E057FF4FE491F0E0EE0FFF1FE2556B
:100C7000FF4F859194919A8B898BDF91CF911F9132
:100C800008951F93CF93DF93EC01162F60E0812F1F
:100C90000E94BA0D8E8D81FD04C061E0812F0E94FB
:100CA000F30D1C87812F90E0FC01E458FF4FE49185
:100CB000ED87FC01E057FF4FE491F0E0EE0FFF1FDE
:100CC000EC55FF4F859194919F878E87DF91CF914F
:100CD0001F910895FF920F931F93CF93DF93EC0121
:100CE000F62E522F1B821A8208EE13E020E030E02D
:100CF0000C831D832E833F838FE091E0998388834B
:100D00001F8A1E8A198E188E1B8E1A8E1D8E1C8E9F
:100D10008E8D8E7F50FB81F98E8F642FCE010E94C5
:100D200018066F2DCE01DF91CF911F910F91FF908B
:100D30000C944106CF93DF93EC019A01AB011B8E1B
:100D40001A8E198E188E1F8A1E8A60E079E08DE354
:100D500090E00E94B915C9012430310520F0B90195
:100D60006350710902C061E070E07D8F6C8FEC858B
:100D7000E63108F068C0B901769567956431710570
:100D800018F06351710902C061E070E07F8B6E8BD7
:100D9000069718F0C901059702C081E090E0998F8D
:100DA000888FC901880F991F820F931F9695879589
:100DB000969587958D30910510F00C9702C081E0D3
:100DC00090E09B8F8A8F20916800E83050F091E08E
:100DD000EE3008F490E081E001C0880F9A95EAF7C0
:100DE00001C084E0822B809368002C85283038F085
:100DF0002E3040F0263148F48CE690E008C08DE6B5
:100E000090E005C08BE690E002C080E090E09C8B13
:100E10008B8B283030F481E001C0880F2A95EAF7E7
:100E20000DC0822F90E02E3010F4089701C00E976D
:100E300091E001C0990F8A95EAF7892F8D8B8C8DEF
:100E40009D8D0197F1F7CE01DF91CF910C946E0546
:100E50000F931F93609373027093740280937502D3
:100E600090937602009106011091070120910801EC
:100E700030910901060F171F281F391F00936B02BD
:100E800010936C0220936D0230936E0282E090E02A
:100E900090936A02809369020E94D80C60936F025B
:100EA0007093700280937102909372021F910F9160
:100EB0000895EF92FF920F931F93CF93DF93EC016E
:100EC0007B018A01BC01C7010E945913882341F0AC
:100ED000F801808191810E944018EDA5FEA50FC008
:100EE000BE016D5F7F4FC7010E945913882361F0D7
:100EF000F801808191810E944018EFA5F8A96083D4
:100F00007183828393836AC0BE016A5F7F4FC7018A
:100F10000E945913882341F0F801808191810E9439
:100F20004018E9A9FAA9EBCFBE01625E7F4FC70165
:100F30000E945913882379F0C75BDF4F0990D8814D
:100F4000C02DF801808191810E941E1868837983E9
:100F50008A839B8343C0BE016F5D7F4FC7010E94A0
:100F60005913882341F0F801808191810E94221851
:100F7000CF5BDF4F2FC0BE016C5D7F4FC7010E946A
:100F80005913882341F0F801808191810E94221831
:100F9000CD5BDF4F1FC0BE01695D7F4FC7010E945F
:100FA0005913882341F0F801808191810E94221811
:100FB000CB5BDF4F0FC0BE01665D7F4FC7010E9454
:100FC0005913882359F0F801808191810E942218D9
:100FD000C95BDF4FE881F98191838083DF91CF91F5
:100FE0001F910F91FF90EF90089520E043E062E0A1
:100FF00084EC92E00E946A0683E494E5A0E080938A
:10100000770290937802A093790283E594E5A0E0BB
:1010100080937A0290937B02A0937C0285E494E50E
:10102000A0E080937D0290937E02A0937F028CE4E7
:1010300097E5A0E08093800290938102A0938202C2
:1010400087E595E5A0E08093830290938402A093C6
:10105000850284E591E4A0E0809386029093870264
:10106000A09388028CE495E5A0E080938902909398
:101070008A02A0938B0285E591E4A0E080938C0224
:1010800090938D02A0938E0285E593E5A0E0809376
:101090008F0290939002A093910284E590E5A0E0E6
:1010A0008093920290939302A093940284E59DE42E
:1010B000A0E08093950290939602A093970285E515
:1010C0009DE4A0E08093980290939902A0939A02E5
:1010D00085E599E4A0E080939B0290939C02A09305
:1010E0009D0283E59DE4A0E080939E0290939F0281
:1010F000A093A00283E599E4A0E08093A1029093DD
:10110000A202A093A3028FEF9FEF9093C30280935C
:10111000C202089584EC92E00C941106AF92BF9243
:10112000CF92DF92EF92FF920F93CF93DF93EC0178
:101130007A0159016AE671E00E94F511B70184EC69
:1011400092E00E9461100E94D80C6B017C01C501E5
:10115000AA2797FDA095BA2FC80ED91EEA1EFB1E1E
:101160000E94D80C6C157D058E059F0578F484ECE3
:1011700092E00E943105892B99F384EC92E00E9461
:10118000A404682FCE010E94E212F1CF002329F0BF
:10119000BE018CEE92E00E946110CE01DF91CF91F2
:1011A0000F91FF90EF90DF90CF90BF90AF90089598
:1011B000CF92DF92EF92FF920F931F93CF93DF9323
:1011C000CDB7DEB768970FB6F894DEBF0FBECDBFC0
:1011D0007C016A018901CE0143960E9422126BE1D3
:1011E00071E0CE010D960E94F51165E271E0CE012D
:1011F00043960E94D21267E271E0C6010E94D212A9
:10120000B801CE010D960E94F51268EB71E0CE0197
:101210000D960E94D212F601648175818F89988D96
:10122000680F791FCE010D960E94271368E671E0C2
:10123000CE010D960E94D212BE01635F7F4FCE0198
:1012400007960E94221201E028EE33E0AE01495FCA
:101250005F4FB701CE0101960E948E08CE01019624
:101260000E948711CE0107960E948711BE016D5E14
:101270007F4FCE0107960E94221228EE33E0AE0186
:10128000495F5F4FB701CE0101960E948E08CE01E3
:1012900001960E948711CE0107960E948711B60120
:1012A000CE0107960E94221228EE33E0AE01495F7C
:1012B0005F4FB701CE0101960E948E08CE010196C4
:1012C0000E948711CE0107960E948711CE010D96CC
:1012D0000E948711CE0143960E94871168960FB62F
:1012E000F894DEBF0FBECDBFDF91CF911F910F915C
:1012F000FF90EF90DF90CF9008958F929F92AF92E2
:10130000BF92CF92DF92EF920F931F93CF93DF9311
:10131000CDB7DEB72C970FB6F894DEBF0FBECDBFAA
:101320006C015C018BE4A80EB11CD5018D909C90E2
:10133000BFEF8B169B0609F4A1C0D601D996ED919B
:10134000FC91DA97608170E04AE0CE0107960E9436
:101350004312B6016E5E7F4FCE0101960E94F511D9
:10136000E12C04E610E09401AE01495F5F4FBE013D
:101370006F5F7F4FC6010E94D808CE0101960E9480
:101380008711CE0107960E948711F5018080918018
:10139000D601DB96ED91FC91DC97608171814AE08A
:1013A000CE0107960E944312B6016B5E7F4FCE01BD
:1013B00001960E94F5119401AE01495F5F4FBE0195
:1013C0006F5F7F4FC6010E94D808CE0101960E9430
:1013D0008711CE0107960E948711F50180809180C8
:1013E000D601DD96ED91FC91DE97608171814AE036
:1013F000CE0107960E944312B601685E7F4FCE0170
:1014000001960E94F5119401AE01495F5F4FBE0144
:101410006F5F7F4FC6010E94D808CE0101960E94DF
:101420008711CE0107960E948711F501A080B18037
:101430003C970190F081E02D408151816281738160
:1014400022E0CE0107960E946F12B601655E7F4FC3
:10145000CE0101960E94F5119501AE01495F5F4FE3
:10146000BE016F5F7F4FC6010E94D808CE01019672
:101470000E948711CE0107960E9487112C960FB605
:10148000F894DEBF0FBECDBFDF91CF911F910F91BA
:10149000EF90DF90CF90BF90AF909F908F90089586
:1014A0006F927F928F929F92AF92BF92CF92DF9274
:1014B000EF92FF920F931F93CF93DF93CDB7DEB7D9
:1014C0002C970FB6F894DEBF0FBECDBF3C01FC01D8
:1014D00076A765A752AB41AB34AB23AB16AB05ABDC
:1014E000F0AEE7AAD2AEC1AEB4AEA3AE96AE85AEB4
:1014F000EF5BFF4F8F8D98A191838083329689A1F6
:101500009AA19183808332968BA19CA19183808341
:1015100032968DA19EA19183808332968FA198A54A
:101520009183808340E05BE460E070E084EC92E0D3
:101530000E949A0669E271E0CE0107960E94F511B9
:1015400001E020ED37E0AE01495F5F4FB301CE010E
:1015500001960E948E08CE0101960E948711CE014D
:1015600007960E94871168EE73E080E090E00E9489
:10157000070D62E371E0CE0107960E94F51120EDA0
:1015800037E0AE01495F5F4FB301CE0101960E9483
:101590008E08CE0101960E948711CE0107960E9407
:1015A000871165E471E0CE0107960E94F51120EDE8
:1015B00037E0AE01495F5F4FB301CE0101960E9453
:1015C0008E08CE0101960E948711CE0107960E94D7
:1015D000871168E873E180E090E00E94070D6BE6F8
:1015E00071E0CE0107960E94F51128EE33E0AE01BE
:1015F000495F5F4FB301CE0101960E948E08CE0174
:1016000001960E948711CE0107960E9487116CE215
:1016100071E080E090E00E94070D69E771E0CE0183
:1016200007960E94F51128EE33E0AE01495F5F4F47
:10163000B301CE0101960E948E08CE0101960E9450
:101640008711CE0107960E94871164E871E0CE01F0
:1016500007960E94F51128EE33E0AE01495F5F4F17
:10166000B301CE0101960E948E08CE0101960E9420
:101670008711CE0107960E94871162E971E0CE01C1
:1016800007960E94F51128EE33E0AE01495F5F4FE7
:10169000B301CE0101960E948E08CE0101960E94F0
:1016A0008711CE0107960E94871168EA71E08CEEDF
:1016B00092E00E949E102C960FB6F894DEBF0FBEEB
:1016C000CDBFDF91CF911F910F91FF90EF90DF90F1
:1016D000CF90BF90AF909F908F907F906F90089524
:1016E000EF92FF920F931F93CF93DF93CDB7DEB7A7
:1016F000E0970FB6F894DEBF0FBECDBF7C0184EC3F
:1017000092E00E943105892B09F4FBC064EB71E083
:1017100084EC92E00E945B11882309F4F2C084EC0F
:1017200092E00E94A404F701E55BFF4F01969183CC
:1017300080834AE364EC72E0CE018B960E945F11D5
:101740006AE671E0CE0185960E94F5116AE671E0C5
:10175000CE014F960E94F5116AE671E0CE014996DE
:101760000E94F51140E064EC72E0CE0143960E94C5
:101770005F1100E010E08F89988D0817190708F0B5
:101780009DC0B801CE0143960E947813FC01808170
:101790008B3309F08AC022E030E040E050E0BE0127
:1017A000675E7F4FCE0101960E948A13BE016F5F74
:1017B0007F4FCE0185960E940B12CE0101960E94AA
:1017C00087112D8D3E8D43E050E0BE01675E7F4F57
:1017D000CE0101960E948A13BE016F5F7F4FCE013A
:1017E0004F960E940B12CE0101960E9487116AE665
:1017F00071E0CE0149960E942B126AEB71E0CE0196
:101800000D960E94F511BE016B5D7F4FCE010D96C6
:101810000E94CB1264EC71E0CE010D960E94D212B0
:10182000BE01615E7F4FCE010D960E94CB12BE01BC
:10183000615E7F4FCE0101960E942212BE016B5D58
:101840007F4FCE0107960E942212AE014F5F5F4F7D
:10185000BE01695F7F4FC7010E945907CE010796FD
:101860000E948711CE0101960E9487116EEC71E0F3
:101870008CEE92E00E946F10BE016B5D7F4F8CEE8C
:1018800092E00E948C1068ED71E08CEE92E00E9474
:101890006F10BE01615E7F4F8CEE92E00E948C1053
:1018A000CE010D960E94871129C0B801CE01439642
:1018B0000E947813FC018081811115C0CE014396EE
:1018C0000E948711CE0149960E948711CE014F9642
:1018D0000E948711CE0185960E948711CE018B96BA
:1018E0000E9487110EC0B801CE0143960E94781362
:1018F000FC016081CE0149960E94E2120F5F1F4FEA
:101900003ACFE0960FB6F894DEBF0FBECDBFDF91A1
:10191000CF911F910F91FF90EF9008951F920F921A
:101920000FB60F9211242F933F938F939F93AF93F2
:10193000BF938091E4029091E502A091E602B091FC
:10194000E7023091E30223E0230F2D3720F40196C4
:10195000A11DB11D05C026E8230F0296A11DB11DD2
:101960002093E3028093E4029093E502A093E602C1
:10197000B093E7028091E8029091E902A091EA0217
:10198000B091EB020196A11DB11D8093E8029093E6
:10199000E902A093EA02B093EB02BF91AF919F914D
:1019A0008F913F912F910F900FBE0F901F90189520
:1019B0002FB7F8946091E4027091E5028091E602FD
:1019C0009091E7022FBF08953FB7F8948091E80205
:1019D0009091E902A091EA02B091EB0226B5A89B92
:1019E00005C02F3F19F00196A11DB11D3FBF66270D
:1019F000782F892F9A2F620F711D811D911D42E052
:101A0000660F771F881F991F4A95D1F70895CF92C7
:101A1000DF92EF92FF92CF93DF936B017C010E94E4
:101A2000E40CEB01C114D104E104F10489F00E943B
:101A3000CF130E94E40C6C1B7D0B683E734090F347
:101A400081E0C81AD108E108F108C851DC4FEACF9B
:101A5000DF91CF91FF90EF90DF90CF9008950197A5
:101A600039F0880F991F880F991F02970197F1F796
:101A70000895789484B5826084BD84B5816084BD06
:101A800085B5826085BD85B5816085BDEEE6F0E0F7
:101A9000808181608083E1E8F0E010828081826053
:101AA0008083808181608083E0E8F0E080818160D4
:101AB0008083E1EBF0E0808184608083E0EBF0E004
:101AC000808181608083EAE7F0E0808184608083A8
:101AD0008081826080838081816080838081806852
:101AE00080831092C10008958E3008F08E50877068
:101AF00020910A0190E4299F90011124822B809368
:101B00007C0080917A00806480937A0080917A00D2
:101B100086FDFCCF809178002091790090E0922B97
:101B20000895833081F028F4813099F08230A1F05B
:101B300008958730A9F08830B9F08430D1F48091CD
:101B400080008F7D03C0809180008F77809380001C
:101B5000089584B58F7702C084B58F7D84BD0895C4
:101B60008091B0008F7703C08091B0008F7D80930B
:101B7000B0000895CF93DF9390E0FC01E458FF4F4D
:101B80002491FC01E057FF4F8491882349F190E0B4
:101B9000880F991FFC01E854FF4FA591B49182551D
:101BA0009F4FFC01C591D4919FB7611108C0F89473
:101BB0008C91209582238C93888182230AC0623085
:101BC00051F4F8948C91322F309583238C93888133
:101BD000822B888304C0F8948C91822B8C939FBFB6
:101BE000DF91CF9108950F931F93CF93DF931F92AF
:101BF000CDB7DEB7282F30E0F901E859FF4F8491C7
:101C0000F901E458FF4F1491F901E057FF4F049197
:101C10000023C9F0882321F069830E94910D698116
:101C2000E02FF0E0EE0FFF1FE255FF4FA591B491BA
:101C30009FB7F8948C91611103C01095812301C066
:101C4000812B8C939FBF0F90DF91CF911F910F91AC
:101C50000895FC01818D228D90E0805C9F4F821B56
:101C600091098F7399270895FC01918D828D9817A2
:101C700031F0828DE80FF11D858D90E008958FEF92
:101C80009FEF0895FC01918D828D981761F0828DF0
:101C9000DF01A80FB11D5D968C91928D9F5F9F73A0
:101CA000928F90E008958FEF9FEF089586EC9FE06C
:101CB000892B49F080E090E0892B29F00E94C60F23
:101CC00081110C9400000895FC01848DDF01A80FA0
:101CD000B11DA35ABF4F2C91848D90E001968F7354
:101CE0009927848FA689B7892C93A089B1898C9173
:101CF00080648C93938D848D981306C00288F38939
:101D0000E02D80818F7D80830895CF93DF93EC0158
:101D1000888D8823C9F0EA89FB89808185FD05C00B
:101D2000A889B9898C9186FD0FC00FB607FCF5CF45
:101D3000808185FFF2CFA889B9898C9185FFEDCF8D
:101D4000CE010E94640EE7CFDF91CF910895CF922C
:101D5000DF92FF920F931F93CF93DF931F92CDB724
:101D6000DEB76C01DC015B969C915B975C968C9175
:101D70005C97981307C05096ED91FC915197808124
:101D800085FD32C0F601038D10E00F5F1F4F0F730A
:101D90001127F02EF601848DF81211C00FB607FC42
:101DA000F9CFD6015096ED91FC915197808185FF36
:101DB000F1CFC60169830E94640E6981EBCF838DE8
:101DC000E80FF11DE35AFF4F6083D6015B960C9339
:101DD0005B975296ED91FC9153978081806280834E
:101DE00081E058968C930DC0D6015696ED91FC91EA
:101DF000579760835096ED91FC9151978081806454
:101E0000808381E090E00F90DF91CF911F910F913F
:101E1000FF90DF90CF900895BF92CF92DF92EF9224
:101E2000FF92CF93DF93EC016A017B01B22EE88928
:101E3000F98982E08083411581EE580761057105BB
:101E4000A1F060E079E08DE390E0A70196010E94A7
:101E500097152150310941095109569547953795F4
:101E60002795211580E1380798F0E889F9891082D3
:101E700060E874E88EE190E0A70196010E94971552
:101E800021503109410951095695479537952795B4
:101E9000EC85FD853083EE85FF852083188EEC89E7
:101EA000FD89B082EA89FB89808180618083EA892B
:101EB000FB89808188608083EA89FB8980818068D2
:101EC0008083EA89FB8980818F7D8083DF91CF9138
:101ED000FF90EF90DF90CF90BF9008951F920F92E8
:101EE0000FB60F9211242F938F939F93EF93FF932D
:101EF000E091FC02F091FD028081E0910203F091FB
:101F0000030382FD12C09081809105038F5F8F7360
:101F100020910603821751F0E0910503F0E0E451AF
:101F2000FD4F958F8093050301C08081FF91EF9154
:101F30009F918F912F910F900FBE0F901F9018952A
:101F40001F920F920FB60F9211242F933F934F932E
:101F50005F936F937F938F939F93AF93BF93EF9311
:101F6000FF938CEE92E00E94640EFF91EF91BF917F
:101F7000AF919F918F917F916F915F914F913F9121
:101F80002F910F900FBE0F901F9018958CEE92E03E
:101F90000E94290E21E0892B09F420E0822F089568
:101FA0001092EF021092EE0288EE93E0A0E0B0E013
:101FB0008093F0029093F102A093F202B093F302A7
:101FC00084EE91E09093ED028093EC0285EC90E03A
:101FD0009093F9028093F80284EC90E09093FB02D6
:101FE0008093FA0280EC90E09093FD028093FC02D3
:101FF00081EC90E09093FF028093FE0282EC90E0EF
:10200000909301038093000386EC90E09093030388
:1020100080930203109205031092060310920703A7
:1020200010920803089508950E94390D0E9413101C
:102030000E942A01C6E5DEE00E9454022097E1F3E7
:102040000E94560EF9CFCF92DF92EF92FF920F933C
:102050001F93CF93DF936C017A01EB01E60EF71E1D
:1020600000E010E0CE15DF0561F06991D601ED9139
:10207000FC910190F081E02DC6010995080F191F10
:10208000F1CFC801DF91CF911F910F91FF90EF9099
:10209000DF90CF9008956115710581F0DB010D90FF
:1020A0000020E9F7AD0141505109461B570BDC01F7
:1020B000ED91FC910280F381E02D099480E090E0A5
:1020C0000895DC01ED91FC91DB0114964D915C913A
:1020D00015976D917C910280F381E02D09940C9409
:1020E0004B10DC01ED91FC910190F081E02D099401
:1020F0000F931F93CF93DF93EC016DE00E9471105B
:102100008C016AE0CE010E947110800F911FDF9157
:10211000CF911F910F9108950F931F93CF93DF934A
:10212000EC010E9461108C01CE010E947810800F9A
:10213000911FDF91CF911F910F9108950F931F93DE
:10214000CF93DF93EC010E944B108C01CE010E94D3
:102150007810800F911FDF91CF911F910F910895FB
:102160000F931F93CF93DF93EC010E94D80C6887E5
:1021700079878A879B87E881F9810680F781E02D3E
:10218000CE01099597FF15C00E94D80C08851985C6
:102190002A853B85601B710B820B930B0C811D8183
:1021A0002E813F81601771078207930720F38FEF1D
:1021B0009FEFDF91CF911F910F9108956F927F92C2
:1021C0008F929F92AF92BF92CF92DF92EF92FF9247
:1021D0000F931F93CF93DF935C016B014A01390189
:1021E000FB0180818823E9F1E12CF12CC0E0D0E0F3
:1021F000C5010E94B010181619068CF5F601EC0FF7
:10220000FD1F2081332727FD30958217930711F09A
:10221000C0E0D0E0F601EC0FFD1F2081332727FD41
:1022200030958217930721F42196C815D905C8F473
:102230000115110589F0F301EE0DFF1D20813327F3
:1022400027FD30958217930739F4FFEFEF1AFF0A45
:10225000E016F10668F203C0E12CF12CC9CF80E052
:1022600001C081E0DF91CF911F910F91FF90EF901E
:10227000DF90CF90BF90AF909F908F907F906F90A6
:1022800008950F931F939A01FA0101900020E9F736
:102290008F0101501109041B150BFB010190002057
:1022A000E9F7AF0141505109461B570B0E94DE1060
:1022B0001F910F9108954AE651E00C944111EF925D
:1022C000FF920F931F93CF93DF93EC018B01E42ECA
:1022D0006AE671E00E94F511C8010E94B010FF2467
:1022E000E7FCF09497FD0BC08E159F0541F0682F19
:1022F000CE010E94E212C8010E94B010F3CFCE01BD
:10230000DF91CF911F910F91FF90EF900895FC0105
:10231000808191810C94C516CF93DF93EC01888165
:102320009981009711F00E94C516198218821D82AA
:102330001C821B821A82DF91CF9108950F931F9305
:10234000CF93DF93EC018B016F5F7F4F8881998181
:102350000E945417009731F0998388831B830A8366
:1023600081E001C080E0DF91CF911F910F9108952E
:10237000CF93DF93EC0188819981892B29F08A81A1
:102380009B818617970760F4CE010E949E118823D7
:1023900041F08C819D81892B19F4E881F9811082AB
:1023A00081E0DF91CF910895EF92FF920F931F93F9
:1023B000CF93DF93EC017B018A01BA010E94B8112F
:1023C000811104C0CE010E948C1107C01D830C83B3
:1023D000B701888199810E948118CE01DF91CF9148
:1023E0001F910F91FF90EF900895FC0111821082D0
:1023F00013821282158214826115710559F0FB0156
:1024000001900020E9F7AF0141505109461B570BDD
:102410000C94D4110895CF93DF93EC01FB01861740
:10242000970761F0608171816115710529F0448120
:1024300055810E94D41102C00E948C11CE01DF91FF
:10244000CF910895FC0111821082138212821582AD
:1024500014820C940B12CF93DF93EC01611571057C
:1024600061F0FB0101900020E9F7AF0141505109F3
:10247000461B570B0E94D41102C00E948C11CE0142
:10248000DF91CF9108950F931F93CF93DF93CDB733
:10249000DEB762970FB6F894DEBF0FBECDBF8C01DA
:1024A000CB01F801118210821382128215821482EC
:1024B00050E0BE016F5F7F4F0E948818BE016F5FC2
:1024C0007F4FC8010E942B1262960FB6F894DEBFB0
:1024D0000FBECDBFDF91CF911F910F910895EF9265
:1024E000FF920F931F93CF93DF93CDB7DEB7A197E2
:1024F0000FB6F894DEBF0FBECDBF7C01CB01BA0191
:10250000F70111821082138212821582148242E036
:10251000420F8E010F5F1F4F0E940C16BC01C701B6
:102520000E942B12A1960FB6F894DEBF0FBECDBF4E
:10253000DF91CF911F910F91FF90EF900895EF924F
:10254000FF920F931F93CF93DF93EC017B010C81DC
:102550001D816115710511F480E016C0411551050A
:1025600091F0040F151FB8010E94B8118823A1F340
:10257000288139818C819D81B701820F931F0E9430
:1025800081181D830C8381E0DF91CF911F910F9102
:10259000FF90EF900895FB01448155816081718126
:1025A0000C949F126115710559F0FB0101900020F8
:1025B000E9F7AF0141505109461B570B0C949F128C
:1025C00080E00895CF93DF9300D0CDB7DEB7698365
:1025D0001A8241E050E0BE016F5F7F4F0E949F1260
:1025E0000F900F90DF91CF910895EF92FF920F938C
:1025F0001F93CF93DF93CDB7DEB728970FB6F8942C
:10260000DEBF0FBECDBF7C01CB014AE050E08E01A2
:102610000F5F1F4FB8010E948818F8010190002039
:10262000E9F7AF0141505109401B510BB801C701F7
:102630000E949F1228960FB6F894DEBF0FBECDBF42
:10264000DF91CF911F910F91FF90EF900895EF923E
:10265000FF920F931F93CF93DF93CDB7DEB72797EA
:102660000FB6F894DEBF0FBECDBF7C01CB014AE0B0
:1026700050E08E010F5F1F4FB8010E94BB18F80198
:1026800001900020E9F7AF0141505109401B510B67
:10269000B801C7010E949F1227960FB6F894DEBFBB
:1026A0000FBECDBFDF91CF911F910F91FF90EF90A3
:1026B0000895FC0124813581232B31F421E061153B
:1026C0007105A1F0FB0108C0FC01808191816115B9
:1026D000710531F421E0FC018081882339F005C0C7
:1026E0000E94781821E0892B09F020E0822F0895BC
:1026F000FC01848195816817790720F4808191819C
:10270000009729F41092890389E893E00895860FD1
:10271000971F0895BF92CF92DF92EF92FF920F938F
:102720001F93CF93DF936C017B01EA01890124178A
:10273000350720F48D2FE901042F182F6AE671E088
:10274000C6010E94F511D70114968D919C911597A1
:10275000C817D907C8F48017910708F48C01D7016E
:10276000ED91FC911197E00FF11FB08010826D91F7
:102770007C916C0F7D1FC6010E942B12D701ED9139
:10278000FC91E00FF11FB082C601DF91CF911F9144
:102790000F91FF90EF90DF90CF90BF900895089534
:1027A0005058BB27AA270ED00DC1FED030F003D160
:1027B00020F031F49F3F11F41EF4F3C00EF4E095C5
:1027C000E7FBE9C0E92F0FD180F3BA17620773075F
:1027D0008407950718F071F49EF527C10EF4E09573
:1027E0000B2EBA2FA02D0B01B90190010C01CA01CB
:1027F000A0011124FF27591B99F0593F50F4503E76
:1028000068F11A16F040A22F232F342F4427585F67
:10281000F3CF469537952795A795F0405395C9F77F
:102820007EF41F16BA0B620B730B840BBAF0915037
:10283000A1F0FF0FBB1F661F771F881FC2F70EC0D6
:10284000BA0F621F731F841F48F4879577956795A9
:10285000B795F7959E3F08F0B3CF9395880F08F092
:102860009927EE0F97958795089571D008F481E028
:10287000089504D06894B111D9C00895BCD088F0EF
:102880009F5790F0B92F9927B751A0F0D1F0660F5C
:10289000771F881F991F1AF0BA95C9F712C0B13077
:1028A00081F0C3D0B1E00895C0C0672F782F88278A
:1028B000B85F39F0B93FCCF3869577956795B395B6
:1028C000D9F73EF490958095709561957F4F8F4F25
:1028D0009F4F0895E89409C097FB3EF4909580952A
:1028E000709561957F4F8F4F9F4F9923A9F0F92FD6
:1028F00096E9BB279395F695879577956795B79554
:10290000F111F8CFFAF4BB0F11F460FF1BC06F5F39
:102910007F4F8F4F9F4F16C0882311F096E911C04B
:10292000772321F09EE8872F762F05C0662371F06C
:1029300096E8862F70E060E02AF09A95660F771F80
:10294000881FDAF7880F9695879597F90895990F5C
:102950000008550FAA0BE0E8FEEF16161706E80769
:10296000F907C0F012161306E407F50798F0621B8A
:10297000730B840B950B39F40A2661F0232B242B5F
:10298000252B21F408950A2609F4A140A6958FEF7E
:10299000811D811D089597F99F6780E870E060E0D0
:1029A00008959FEF80EC089500240A9416161706E8
:1029B00018060906089500240A9412161306140630
:1029C00005060895092E0394000C11F4882352F093
:1029D000BB0F40F4BF2B11F460FF04C06F5F7F4F4B
:1029E0008F4F9F4F089557FD9058440F551F59F032
:1029F0005F3F71F04795880F97FB991F61F09F3FEC
:102A000079F087950895121613061406551FF2CF14
:102A10004695F1DF08C0161617061806991FF1CF64
:102A200086957105610508940895E894BB2766278B
:102A30007727CB0197F908958ADF08F48FEF08957F
:102A40000BD0C0CFB1DF28F0B6DF18F0952309F026
:102A5000A2CFA7CF1124EACFC6DFA0F3959FD1F371
:102A6000950F50E0551F629FF001729FBB27F00D3C
:102A7000B11D639FAA27F00DB11DAA1F649F662791
:102A8000B00DA11D661F829F2227B00DA11D621FE0
:102A9000739FB00DA11D621F839FA00D611D221F9A
:102AA000749F3327A00D611D231F849F600D211D7E
:102AB000822F762F6A2F11249F5750408AF0E1F021
:102AC00088234AF0EE0FFF1FBB1F661F771F881F6A
:102AD00091505040A9F79E3F510570F05CCFA6CFB2
:102AE0005F3FECF3983EDCF3869577956795B79555
:102AF000F795E7959F5FC1F7FE2B880F911D96957F
:102B0000879597F9089597FB072E16F4009407D040
:102B100077FD09D00E94F21507FC05D03EF4909590
:102B200081959F4F0895709561957F4F0895A1E21B
:102B30001A2EAA1BBB1BFD010DC0AA1FBB1FEE1F37
:102B4000FF1FA217B307E407F50720F0A21BB30B82
:102B5000E40BF50B661F771F881F991F1A9469F7FE
:102B600060957095809590959B01AC01BD01CF015A
:102B70000895052E97FB1EF400940E94D01557FD72
:102B800007D00E94971507FC03D04EF40C94D01583
:102B900050954095309521953F4F4F4F5F4F089589
:102BA00090958095709561957F4F8F4F9F4F0895B9
:102BB000A29FB001B39FC001A39F700D811D11247E
:102BC000911DB29F700D811D1124911D08950E94C9
:102BD000D815A59F900DB49F900DA49F800D911DB9
:102BE00011240895AA1BBB1B51E107C0AA1FBB1FDC
:102BF000A617B70710F0A61BB70B881F991F5A9589
:102C0000A9F780959095BC01CD010895EE0FFF1FA7
:102C10000590F491E02D0994EF920F931F93CF93B9
:102C2000DF93E80147FF02C034E101C034E0E42F44
:102C3000FF27E7FDF095F7FF03C0F195E195F10956
:102C4000E32E022F2E2FAE010E94E018CE01DF915D
:102C5000CF911F910F91EF900895CF93DF93823022
:102C6000910510F482E090E0E0918C03F0918D03E7
:102C700020E030E0A0E0B0E0309739F140815181B0
:102C800048175907B8F04817590771F482819381A2
:102C9000109729F013969C938E9312972CC09093C3
:102CA0008D0380938C0327C02115310531F0421725
:102CB000530718F0A901DB0101C0EF019A01BD0122
:102CC000DF010280F381E02DD7CF21153105F9F026
:102CD000281B390B2430310580F48A819B816115D2
:102CE000710521F0FB019383828304C090938D03CF
:102CF00080938C03FE01329644C0FE01E20FF31F65
:102D00008193919322503109398328833AC02091CD
:102D10008A0330918B03232B41F4209102013091DF
:102D2000030130938B0320938A032091000130919B
:102D300001012115310541F42DB73EB74091040141
:102D400050910501241B350BE0918A03F0918B0310
:102D5000E217F307A0F42E1B3F0B2817390778F072
:102D6000AC014E5F5F4F2417350748F04E0F5F1FD1
:102D700050938B0340938A038193919302C0E0E0C8
:102D8000F0E0CF01DF91CF910895CF93DF930097CB
:102D900009F487C0FC01329713821282C0918C0320
:102DA000D0918D03209781F420813181280F391F24
:102DB00080918A0390918B038217930779F5F093A2
:102DC0008B03E0938A036DC0DE0120E030E0AE1794
:102DD000BF0750F412964D915C9113979D014115D8
:102DE000510509F1DA01F3CFB383A2834081518108
:102DF000840F951F8A179B0771F48D919C911197F1
:102E0000840F951F02969183808312968D919C91D9
:102E10001397938382832115310529F4F0938D0351
:102E2000E0938C033EC0D9011396FC93EE93129766
:102E30004D915D91A40FB51FEA17FB0779F48081CE
:102E40009181840F951F0296D90111969C938E93C0
:102E50008281938113969C938E931297E0E0F0E029
:102E60008A819B81009719F0FE01EC01F9CFCE0118
:102E7000029628813981820F931F20918A03309115
:102E80008B032817390769F4309729F410928D03C2
:102E900010928C0302C013821282D0938B03C093D2
:102EA0008A03DF91CF910895A0E0B0E0EAE5F7E171
:102EB0000C94C81CEC01CB01209719F40E942D162C
:102EC000B8C0FE01E60FF71F9E0122503109E2173C
:102ED000F30708F4ACC0D9010D911C9111970617A6
:102EE0001707B8F00530110508F49FC0A801445039
:102EF00051094617570708F498C002501109061BDC
:102F0000170B019311936D937C93CF010E94C5160B
:102F10008CC05B01A01AB10A4E01800E911EA091D7
:102F20008C03B0918D03612C712C60E070E01097E0
:102F300009F449C0A815B905C9F5ED90FC901197A1
:102F4000670142E0C40ED11CCA14DB0478F14701CA
:102F50008A189B08640142E0C40ED11C1296BC90F2
:102F600012971396AC91B5E0CB16D10440F0B28223
:102F7000A38391828082D9018D939C9309C00E5FB7
:102F80001F4F0E0D1F1DF90111830083EB2DFA2F2A
:102F90006115710531F0DB011396FC93EE931297E6
:102FA00044C0F0938D03E0938C033FC06D917C91FE
:102FB00011976616770608F43B01BD0112960D9035
:102FC000BC91A02DB4CF60918A0370918B036815DA
:102FD0007905E9F468167906D0F440910001509122
:102FE00001014115510541F44DB75EB760910401EF
:102FF00070910501461B570BE417F507C0F4F093D9
:103000008B03E0938A03F901918380830EC00E94B1
:103010002D167C01009759F0A801BE010E946F187F
:10302000CE010E94C516C70104C0CE0102C080E0D7
:1030300090E0CDB7DEB7EEE00C94E41C662777276E
:103040000C945E1AFC0188279927E894219120327C
:10305000E9F3293010F02E30C8F32B3241F02D3235
:1030600039F4689404C00E94B318820F911D219115
:1030700020532A30C0F31EF4909581959F4F0895F8
:103080001F93FC0199278827BC01E8941191103205
:10309000E9F3193010F01E30C8F31B3251F01D3225
:1030A00049F4689406C00E949E18610F711D811D2D
:1030B000911D119110531A30B0F33EF49095809504
:1030C000709561957F4F8F4F9F4F1F91089591117C
:1030D00030C4803219F089508550D0F70895FB0133
:1030E000DC0102C001900D9241505040D8F7089584
:1030F000FB01DC018D91019080190110D9F3990B2E
:103100000895FB01DC0101900D920020E1F7089584
:103110004532510520F4423010F00C949318FB0115
:103120001082CB010895BB274A3031F4992322F451
:10313000BDE2909581959F4F0C94C718592F482F49
:10314000372F262F660F771F881F991F660F771F4F
:10315000881F991F620F731F841F951F660F771FAB
:10316000881F991F08957AE0979F902D879F802D43
:10317000910D112408954532510520F4423010F08C
:103180000C94C618FB011082CB010895BB27FB01EC
:103190005527AA27880F991FAA1FA41710F0A41B50
:1031A00083955051B9F7A05DAA3308F0A95DA193AA
:1031B000009779F7B111B1931192CB010C94B41C23
:1031C0006F927F929F92AF92BF92CF92DF92EF92D7
:1031D000FF920F931F93CF93DF93CDB7DEB729975D
:1031E0000FB6F894DEBF0FBECDBF6A01B22E102F0E
:1031F0000C3320F4FF24F394F00E02C04CE3F42EC1
:103200000F2D27E0AE014F5F5F4F0E94C11B7981F8
:10321000272F2970213031F0E1FC06C0E0FC06C008
:1032200060E005C06DE203C06BE201C060E2AE2D5C
:10323000A07173FF36C0662311F084E001C083E003
:103240008B1510F4B81A01C0B12CA1110BC0F601F6
:103250008B2D90E2882319F091938150FBCFCB0CFA
:10326000D11CB12C662331F0F601608396012F5FEB
:103270003F4F6901C6010396E2FE05C02EE4F60148
:10328000208331E404C02EE6F601208331E6318349
:103290002283FC012B2D30E22223F1F131932150C6
:1032A000FBCF72FF40C0662311F084E001C083E0D1
:1032B0008B1510F4B81A01C0B12CA1110BC0F60186
:1032C0008B2D90E2882319F091938150FBCFCB0C8A
:1032D000D11CB12C662331F0F601608396012F5F7B
:1032E0003F4F6901C6010396E2FE07C029E4F601DB
:1032F00020832EE4218326E406C029E6F6012083FC
:103300002EE6218326E62283FC012B2D30E22223A8
:1033100019F031932150FBCFFC01EB0DF11D108210
:103320008EEF9FEFB7C0B1E0611101C0B0E04B2F4D
:1033300050E01816190624F49C012F5F3F4F02C07D
:1033400021E030E0240F351F112329F0412F50E0F8
:103350004F5F5F4F02C040E050E0420F531F2B2DE4
:1033600030E04217530714F4B41A01C0B12C2E2DCB
:10337000287159F4F6012B2D30E2222319F03193F4
:103380002150FBCFCB0CD11CB12CBB2331F0F6016B
:10339000608396012F5F3F4F6901A1110BC0F601B9
:1033A0002B2D30E3222319F031932150FBCFCB0C8E
:1033B000D11CB12CF80E0A81372F3071A32E74FF67
:1033C00003C0013309F4FA941F142CF42F2D293073
:1033D00018F028E001C021E0682F392F97FF02C0C4
:1033E00060E030E0462F532F612C712C3EE2932E8B
:1033F000BC01621B71099B01DC01A41BB50BE1E060
:10340000F0E0EC0FFD1FAE0FBF1FE12EF12CF19489
:10341000E194F1084F3FFFEF5F0731F4F60190822E
:10342000B6016F5F7F4F6B01841795074CF024172F
:10343000350734F4BD01660D771DFB01118101C014
:1034400010E341505109FFEF6F1A7F0AB6016F5F19
:103450007F4F4E155F0524F0F60110836B01DACF24
:103460004817590739F4063320F4053319F4A1102D
:1034700001C011E3F6011083FB018B2D90E288233C
:1034800019F091938150FBCFFB01EB0DF11D1082E0
:1034900080E090E029960FB6F894DEBF0FBECDBF56
:1034A000DF91CF911F910F91FF90EF90DF90CF9020
:1034B000BF90AF909F907F906F900895A0E0B0E094
:1034C000E4E6FAE10C94CA1C8B016115710521F048
:1034D000DB018C9311969C93EC015E01BFEFAB1A5C
:1034E000BB0A7501C8808C2D90E00E946718892B5B
:1034F00011F0E501F2CFEDE2CE1208C07E01F2E05C
:10350000EF0EF11CC980DD24D39409C02BE2C21256
:1035100005C07E0142E0E40EF11CC980D12CE70118
:10352000219743E050E06AEC70E0CE010E949C1CC1
:10353000892BC1F4239645E050E065EC70E0CE01A4
:103540000E949C1C892B09F425960115110519F080
:10355000D801CD93DC93D11006C160E070E080E823
:103560009FE70AC143E050E062EC70E0CE010E94A8
:103570009C1C892B59F40115110509F4F9C0B2E01E
:10358000EB0EF11CF801F182E082F2C0F70160E07D
:1035900070E0CB01C0E0D0E07F01A0EDAA2EAC0C22
:1035A00029E02A1530F14D2D4260B42E2D2D2870C2
:1035B000D2FE04C0211125C0219623C021112197DC
:1035C000A5E0B0E09B01AC010E94E715660F771FF4
:1035D000881F991F6A0D711D811D911D6839A9E908
:1035E0007A078A07A9E19A0760F0BD2DB660BB2E65
:1035F00008C02EEFA2120AC0D3FC50C04D2D486067
:10360000B42E3196D701CC90DB2CC6CF2C2D2F7D3C
:10361000253409F043C0A081AD3241F4BD2DB06125
:10362000DB2E7F0122E0E20EF11C0CC07F01AB32E9
:1036300031F04FEFE41AF40A21E030E006C0A2E0D6
:10364000EA0EF11CA18122E030E0A053AA3018F06C
:10365000E21AF30A23C0F70120E030E02038BCE092
:103660003B075CF4A901440F551F440F551F240F5D
:10367000351F220F331F2A0F311DAF014F5F5F4FE0
:103680007A01A081A053AA3010F4FA01E7CFD4FE4A
:1036900003C0319521953109C20FD31FD1FE09C056
:1036A0000115110531F0E1E0EE1AF108D801ED92B3
:1036B000FC920E946A142D2D2370233019F04B01C7
:1036C0005C0106C04B015C01B7FAB094B7F8B09446
:1036D00020E030E0A901C501B4010E94351488231F
:1036E00009F43EC0D7FF06C0D195C195D10901EEBE
:1036F00010E002C009EF10E06801B8E1CB1AD10870
:1037000090E2E92EF12CCE15DF0574F0F801259139
:10371000359145915491C501B4010E9420154B018A
:103720005C01CE19DF09EFCF04501109F594E7943D
:103730000C151D0541F78A2D880F8B2D881F8F3F93
:1037400049F020E030E0A901C501B4010E94351420
:10375000811106C082E290E090938F0380938E03E4
:10376000C501B40109C060E070E080E89FEF04C0CB
:1037700060E070E080EC9FE7CDB7DEB7ECE00C9442
:10378000E61C283008F027E03327DA01990F311DB5
:1037900087FD916000966105710539F432602E5FF6
:1037A0003D9330E32A95E1F708959F3F30F080384C
:1037B0007105610509F03C5F3C5F3D93913008F075
:1037C0008068911DDF93CF931F930F93FF92EF9229
:1037D000192F987F9695E92F96959695E90FFF27D3
:1037E000E95AFE4F99273327EE24FF24A701E7016A
:1037F00005900894079428F4360FE71EF81E491F19
:10380000511D660F771F881F991F0694A1F7059019
:10381000079428F4E70EF81E491F561FC11D770FA5
:10382000881F991F661F0694A1F70590079428F436
:10383000F80E491F561FC71FD11D880F991F661FFD
:10384000771F0694A1F70590079420F4490F561F9F
:10385000C71FD81F990F661F771F881F0694A9F7E7
:1038600084911095177041F0D695C7955795479557
:10387000F794E7941A95C1F7EDEFF0E0689415908E
:10388000159135916591959105907FE27395E118B9
:10389000F10A430B560BC90BD009C0F7E10CF11E1E
:1038A000431F561FC91FD01D7EF4703311F48A9533
:1038B000E6CFE894015030F0080F0AF40027021711
:1038C00008F4202F2395022F7A3328F079E37D9393
:1038D0002A95E9F710C07D932A9589F60694979565
:1038E0006795379517951794E118F10A430B560B16
:1038F000C90BD00998F023957E9173957A3308F01F
:1039000070E37C932013B8F77E9170617D9330F063
:10391000839571E37D9370E32A95E1F71124EF908D
:10392000FF900F911F91CF91DF91992787FD90957F
:103930000895992788270895FB01DC0141505040E4
:1039400088F08D9181341CF08B350CF4805E65918C
:1039500061341CF06B350CF4605E861B611171F3F1
:10396000990B0895881BFCCFDC01FC01672F719136
:103970007723E1F7329704C07C916D937083629155
:10398000AE17BF07C8F308952F923F924F925F92F0
:103990006F927F928F929F92AF92BF92CF92DF925F
:1039A000EF92FF920F931F93CF93DF93CDB7DEB7C4
:1039B000CA1BDB0B0FB6F894DEBF0FBECDBF099458
:1039C0002A88398848885F846E847D848C849B84AF
:1039D000AA84B984C884DF80EE80FD800C811B81BD
:1039E000AA81B981CE0FD11D0FB6F894DEBF0FBEEC
:1039F000CDBFED01089512E0CEEFD1E004C0FE018D
:103A00000E9408162296C030D107C9F7F894FFCF5C
:103A10000000900380002C0100000100000000C5A0
:103A20000423103105A4041705490541542B4349CB
:103A30005053454E443D003B0041542B5253540DCE
:103A40000A0041542B43494F424155443D313932DC
:103A500030300D0A0041542B43574A41503D224D0E
:103A60006F64756C6F5F486F727461222C226D6F8A
:103A700064756C6F313233220D0A0041542B435769
:103A80004D4F44453D310D0A0041542B43494653A7
:103A9000520D0A0041542B4349504D55583D310DAC
:103AA0000A0041542B4349505345525645523D312B
:103AB0002C383039300D0A002A2A2046696E616C94
:103AC000202A2A002B4950442C00436F6D6D616EF3
:103AD000643A20000D0A56616C75653A2000436F08
:103AE0006D616E646F3A200056616C6F723A20000F
:103AF00000000000A70E2310290E420E340E850E82
:00000001FF
